{
  "_format": "hh-sol-artifact-1",
  "contractName": "PlayToEarnX",
  "sourceName": "contracts/Play2EarnX.sol",
  "abi": [
    {
      "inputs": [
        {
          "internalType": "uint256",
          "name": "_pct",
          "type": "uint256"
        }
      ],
      "stateMutability": "nonpayable",
      "type": "constructor"
    },
    {
      "anonymous": false,
      "inputs": [
        {
          "indexed": true,
          "internalType": "address",
          "name": "owner",
          "type": "address"
        },
        {
          "indexed": true,
          "internalType": "address",
          "name": "spender",
          "type": "address"
        },
        {
          "indexed": false,
          "internalType": "uint256",
          "name": "value",
          "type": "uint256"
        }
      ],
      "name": "Approval",
      "type": "event"
    },
    {
      "anonymous": false,
      "inputs": [
        {
          "indexed": true,
          "internalType": "address",
          "name": "previousOwner",
          "type": "address"
        },
        {
          "indexed": true,
          "internalType": "address",
          "name": "newOwner",
          "type": "address"
        }
      ],
      "name": "OwnershipTransferred",
      "type": "event"
    },
    {
      "anonymous": false,
      "inputs": [
        {
          "indexed": true,
          "internalType": "address",
          "name": "from",
          "type": "address"
        },
        {
          "indexed": true,
          "internalType": "address",
          "name": "to",
          "type": "address"
        },
        {
          "indexed": false,
          "internalType": "uint256",
          "name": "value",
          "type": "uint256"
        }
      ],
      "name": "Transfer",
      "type": "event"
    },
    {
      "inputs": [
        {
          "internalType": "uint256",
          "name": "gameId",
          "type": "uint256"
        },
        {
          "internalType": "uint256",
          "name": "index",
          "type": "uint256"
        }
      ],
      "name": "acceptInvitation",
      "outputs": [],
      "stateMutability": "payable",
      "type": "function"
    },
    {
      "inputs": [
        {
          "internalType": "address",
          "name": "owner",
          "type": "address"
        },
        {
          "internalType": "address",
          "name": "spender",
          "type": "address"
        }
      ],
      "name": "allowance",
      "outputs": [
        {
          "internalType": "uint256",
          "name": "",
          "type": "uint256"
        }
      ],
      "stateMutability": "view",
      "type": "function"
    },
    {
      "inputs": [
        {
          "internalType": "address",
          "name": "spender",
          "type": "address"
        },
        {
          "internalType": "uint256",
          "name": "amount",
          "type": "uint256"
        }
      ],
      "name": "approve",
      "outputs": [
        {
          "internalType": "bool",
          "name": "",
          "type": "bool"
        }
      ],
      "stateMutability": "nonpayable",
      "type": "function"
    },
    {
      "inputs": [
        {
          "internalType": "address",
          "name": "account",
          "type": "address"
        }
      ],
      "name": "balanceOf",
      "outputs": [
        {
          "internalType": "uint256",
          "name": "",
          "type": "uint256"
        }
      ],
      "stateMutability": "view",
      "type": "function"
    },
    {
      "inputs": [
        {
          "internalType": "string",
          "name": "title",
          "type": "string"
        },
        {
          "internalType": "string",
          "name": "description",
          "type": "string"
        },
        {
          "internalType": "uint256",
          "name": "participants",
          "type": "uint256"
        },
        {
          "internalType": "uint256",
          "name": "numberOfWinners",
          "type": "uint256"
        },
        {
          "internalType": "uint256",
          "name": "startDate",
          "type": "uint256"
        },
        {
          "internalType": "uint256",
          "name": "endDate",
          "type": "uint256"
        }
      ],
      "name": "createGame",
      "outputs": [],
      "stateMutability": "payable",
      "type": "function"
    },
    {
      "inputs": [],
      "name": "decimals",
      "outputs": [
        {
          "internalType": "uint8",
          "name": "",
          "type": "uint8"
        }
      ],
      "stateMutability": "view",
      "type": "function"
    },
    {
      "inputs": [
        {
          "internalType": "address",
          "name": "spender",
          "type": "address"
        },
        {
          "internalType": "uint256",
          "name": "subtractedValue",
          "type": "uint256"
        }
      ],
      "name": "decreaseAllowance",
      "outputs": [
        {
          "internalType": "bool",
          "name": "",
          "type": "bool"
        }
      ],
      "stateMutability": "nonpayable",
      "type": "function"
    },
    {
      "inputs": [
        {
          "internalType": "uint256",
          "name": "gameId",
          "type": "uint256"
        }
      ],
      "name": "deleteGame",
      "outputs": [],
      "stateMutability": "nonpayable",
      "type": "function"
    },
    {
      "inputs": [
        {
          "internalType": "uint256",
          "name": "gameId",
          "type": "uint256"
        }
      ],
      "name": "getGame",
      "outputs": [
        {
          "components": [
            {
              "internalType": "uint256",
              "name": "id",
              "type": "uint256"
            },
            {
              "internalType": "string",
              "name": "title",
              "type": "string"
            },
            {
              "internalType": "string",
              "name": "description",
              "type": "string"
            },
            {
              "internalType": "address",
              "name": "owner",
              "type": "address"
            },
            {
              "internalType": "uint256",
              "name": "participants",
              "type": "uint256"
            },
            {
              "internalType": "uint256",
              "name": "numberOfWinners",
              "type": "uint256"
            },
            {
              "internalType": "uint256",
              "name": "acceptees",
              "type": "uint256"
            },
            {
              "internalType": "uint256",
              "name": "stake",
              "type": "uint256"
            },
            {
              "internalType": "uint256",
              "name": "startDate",
              "type": "uint256"
            },
            {
              "internalType": "uint256",
              "name": "endDate",
              "type": "uint256"
            },
            {
              "internalType": "uint256",
              "name": "timestamp",
              "type": "uint256"
            },
            {
              "internalType": "bool",
              "name": "deleted",
              "type": "bool"
            },
            {
              "internalType": "bool",
              "name": "paidOut",
              "type": "bool"
            }
          ],
          "internalType": "struct PlayToEarnX.GameStruct",
          "name": "",
          "type": "tuple"
        }
      ],
      "stateMutability": "view",
      "type": "function"
    },
    {
      "inputs": [],
      "name": "getGames",
      "outputs": [
        {
          "components": [
            {
              "internalType": "uint256",
              "name": "id",
              "type": "uint256"
            },
            {
              "internalType": "string",
              "name": "title",
              "type": "string"
            },
            {
              "internalType": "string",
              "name": "description",
              "type": "string"
            },
            {
              "internalType": "address",
              "name": "owner",
              "type": "address"
            },
            {
              "internalType": "uint256",
              "name": "participants",
              "type": "uint256"
            },
            {
              "internalType": "uint256",
              "name": "numberOfWinners",
              "type": "uint256"
            },
            {
              "internalType": "uint256",
              "name": "acceptees",
              "type": "uint256"
            },
            {
              "internalType": "uint256",
              "name": "stake",
              "type": "uint256"
            },
            {
              "internalType": "uint256",
              "name": "startDate",
              "type": "uint256"
            },
            {
              "internalType": "uint256",
              "name": "endDate",
              "type": "uint256"
            },
            {
              "internalType": "uint256",
              "name": "timestamp",
              "type": "uint256"
            },
            {
              "internalType": "bool",
              "name": "deleted",
              "type": "bool"
            },
            {
              "internalType": "bool",
              "name": "paidOut",
              "type": "bool"
            }
          ],
          "internalType": "struct PlayToEarnX.GameStruct[]",
          "name": "Games",
          "type": "tuple[]"
        }
      ],
      "stateMutability": "view",
      "type": "function"
    },
    {
      "inputs": [
        {
          "internalType": "uint256",
          "name": "gameId",
          "type": "uint256"
        }
      ],
      "name": "getInvitations",
      "outputs": [
        {
          "components": [
            {
              "internalType": "uint256",
              "name": "id",
              "type": "uint256"
            },
            {
              "internalType": "string",
              "name": "title",
              "type": "string"
            },
            {
              "internalType": "uint256",
              "name": "gameId",
              "type": "uint256"
            },
            {
              "internalType": "address",
              "name": "receiver",
              "type": "address"
            },
            {
              "internalType": "address",
              "name": "sender",
              "type": "address"
            },
            {
              "internalType": "bool",
              "name": "responded",
              "type": "bool"
            },
            {
              "internalType": "bool",
              "name": "accepted",
              "type": "bool"
            },
            {
              "internalType": "uint256",
              "name": "stake",
              "type": "uint256"
            },
            {
              "internalType": "uint256",
              "name": "timestamp",
              "type": "uint256"
            }
          ],
          "internalType": "struct PlayToEarnX.InvitationStruct[]",
          "name": "",
          "type": "tuple[]"
        }
      ],
      "stateMutability": "view",
      "type": "function"
    },
    {
      "inputs": [],
      "name": "getMyGames",
      "outputs": [
        {
          "components": [
            {
              "internalType": "uint256",
              "name": "id",
              "type": "uint256"
            },
            {
              "internalType": "string",
              "name": "title",
              "type": "string"
            },
            {
              "internalType": "string",
              "name": "description",
              "type": "string"
            },
            {
              "internalType": "address",
              "name": "owner",
              "type": "address"
            },
            {
              "internalType": "uint256",
              "name": "participants",
              "type": "uint256"
            },
            {
              "internalType": "uint256",
              "name": "numberOfWinners",
              "type": "uint256"
            },
            {
              "internalType": "uint256",
              "name": "acceptees",
              "type": "uint256"
            },
            {
              "internalType": "uint256",
              "name": "stake",
              "type": "uint256"
            },
            {
              "internalType": "uint256",
              "name": "startDate",
              "type": "uint256"
            },
            {
              "internalType": "uint256",
              "name": "endDate",
              "type": "uint256"
            },
            {
              "internalType": "uint256",
              "name": "timestamp",
              "type": "uint256"
            },
            {
              "internalType": "bool",
              "name": "deleted",
              "type": "bool"
            },
            {
              "internalType": "bool",
              "name": "paidOut",
              "type": "bool"
            }
          ],
          "internalType": "struct PlayToEarnX.GameStruct[]",
          "name": "Games",
          "type": "tuple[]"
        }
      ],
      "stateMutability": "view",
      "type": "function"
    },
    {
      "inputs": [],
      "name": "getMyInvitations",
      "outputs": [
        {
          "components": [
            {
              "internalType": "uint256",
              "name": "id",
              "type": "uint256"
            },
            {
              "internalType": "string",
              "name": "title",
              "type": "string"
            },
            {
              "internalType": "uint256",
              "name": "gameId",
              "type": "uint256"
            },
            {
              "internalType": "address",
              "name": "receiver",
              "type": "address"
            },
            {
              "internalType": "address",
              "name": "sender",
              "type": "address"
            },
            {
              "internalType": "bool",
              "name": "responded",
              "type": "bool"
            },
            {
              "internalType": "bool",
              "name": "accepted",
              "type": "bool"
            },
            {
              "internalType": "uint256",
              "name": "stake",
              "type": "uint256"
            },
            {
              "internalType": "uint256",
              "name": "timestamp",
              "type": "uint256"
            }
          ],
          "internalType": "struct PlayToEarnX.InvitationStruct[]",
          "name": "Invitations",
          "type": "tuple[]"
        }
      ],
      "stateMutability": "view",
      "type": "function"
    },
    {
      "inputs": [],
      "name": "getPaidOutGames",
      "outputs": [
        {
          "components": [
            {
              "internalType": "uint256",
              "name": "id",
              "type": "uint256"
            },
            {
              "internalType": "string",
              "name": "title",
              "type": "string"
            },
            {
              "internalType": "string",
              "name": "description",
              "type": "string"
            },
            {
              "internalType": "address",
              "name": "owner",
              "type": "address"
            },
            {
              "internalType": "uint256",
              "name": "participants",
              "type": "uint256"
            },
            {
              "internalType": "uint256",
              "name": "numberOfWinners",
              "type": "uint256"
            },
            {
              "internalType": "uint256",
              "name": "acceptees",
              "type": "uint256"
            },
            {
              "internalType": "uint256",
              "name": "stake",
              "type": "uint256"
            },
            {
              "internalType": "uint256",
              "name": "startDate",
              "type": "uint256"
            },
            {
              "internalType": "uint256",
              "name": "endDate",
              "type": "uint256"
            },
            {
              "internalType": "uint256",
              "name": "timestamp",
              "type": "uint256"
            },
            {
              "internalType": "bool",
              "name": "deleted",
              "type": "bool"
            },
            {
              "internalType": "bool",
              "name": "paidOut",
              "type": "bool"
            }
          ],
          "internalType": "struct PlayToEarnX.GameStruct[]",
          "name": "Games",
          "type": "tuple[]"
        }
      ],
      "stateMutability": "view",
      "type": "function"
    },
    {
      "inputs": [
        {
          "internalType": "uint256",
          "name": "gameId",
          "type": "uint256"
        }
      ],
      "name": "getScores",
      "outputs": [
        {
          "components": [
            {
              "internalType": "uint256",
              "name": "id",
              "type": "uint256"
            },
            {
              "internalType": "uint256",
              "name": "gameId",
              "type": "uint256"
            },
            {
              "internalType": "address",
              "name": "player",
              "type": "address"
            },
            {
              "internalType": "uint256",
              "name": "score",
              "type": "uint256"
            },
            {
              "internalType": "uint256",
              "name": "prize",
              "type": "uint256"
            },
            {
              "internalType": "bool",
              "name": "played",
              "type": "bool"
            }
          ],
          "internalType": "struct PlayToEarnX.ScoreStruct[]",
          "name": "",
          "type": "tuple[]"
        }
      ],
      "stateMutability": "view",
      "type": "function"
    },
    {
      "inputs": [
        {
          "internalType": "address",
          "name": "spender",
          "type": "address"
        },
        {
          "internalType": "uint256",
          "name": "addedValue",
          "type": "uint256"
        }
      ],
      "name": "increaseAllowance",
      "outputs": [
        {
          "internalType": "bool",
          "name": "",
          "type": "bool"
        }
      ],
      "stateMutability": "nonpayable",
      "type": "function"
    },
    {
      "inputs": [
        {
          "internalType": "uint256",
          "name": "gameId",
          "type": "uint256"
        },
        {
          "internalType": "address",
          "name": "receiver",
          "type": "address"
        }
      ],
      "name": "invitePlayer",
      "outputs": [],
      "stateMutability": "nonpayable",
      "type": "function"
    },
    {
      "inputs": [],
      "name": "name",
      "outputs": [
        {
          "internalType": "string",
          "name": "",
          "type": "string"
        }
      ],
      "stateMutability": "view",
      "type": "function"
    },
    {
      "inputs": [],
      "name": "owner",
      "outputs": [
        {
          "internalType": "address",
          "name": "",
          "type": "address"
        }
      ],
      "stateMutability": "view",
      "type": "function"
    },
    {
      "inputs": [
        {
          "internalType": "uint256",
          "name": "gameId",
          "type": "uint256"
        }
      ],
      "name": "payout",
      "outputs": [],
      "stateMutability": "nonpayable",
      "type": "function"
    },
    {
      "inputs": [
        {
          "internalType": "uint256",
          "name": "gameId",
          "type": "uint256"
        },
        {
          "internalType": "uint256",
          "name": "index",
          "type": "uint256"
        },
        {
          "internalType": "uint256",
          "name": "score",
          "type": "uint256"
        }
      ],
      "name": "playGame",
      "outputs": [],
      "stateMutability": "nonpayable",
      "type": "function"
    },
    {
      "inputs": [
        {
          "internalType": "uint256",
          "name": "gameId",
          "type": "uint256"
        },
        {
          "internalType": "uint256",
          "name": "index",
          "type": "uint256"
        }
      ],
      "name": "rejectInvitation",
      "outputs": [],
      "stateMutability": "nonpayable",
      "type": "function"
    },
    {
      "inputs": [],
      "name": "renounceOwnership",
      "outputs": [],
      "stateMutability": "nonpayable",
      "type": "function"
    },
    {
      "inputs": [],
      "name": "servicePct",
      "outputs": [
        {
          "internalType": "uint256",
          "name": "",
          "type": "uint256"
        }
      ],
      "stateMutability": "view",
      "type": "function"
    },
    {
      "inputs": [
        {
          "internalType": "uint256",
          "name": "_pct",
          "type": "uint256"
        }
      ],
      "name": "setFeePercent",
      "outputs": [],
      "stateMutability": "nonpayable",
      "type": "function"
    },
    {
      "inputs": [],
      "name": "symbol",
      "outputs": [
        {
          "internalType": "string",
          "name": "",
          "type": "string"
        }
      ],
      "stateMutability": "view",
      "type": "function"
    },
    {
      "inputs": [],
      "name": "totalSupply",
      "outputs": [
        {
          "internalType": "uint256",
          "name": "",
          "type": "uint256"
        }
      ],
      "stateMutability": "view",
      "type": "function"
    },
    {
      "inputs": [
        {
          "internalType": "address",
          "name": "to",
          "type": "address"
        },
        {
          "internalType": "uint256",
          "name": "amount",
          "type": "uint256"
        }
      ],
      "name": "transfer",
      "outputs": [
        {
          "internalType": "bool",
          "name": "",
          "type": "bool"
        }
      ],
      "stateMutability": "nonpayable",
      "type": "function"
    },
    {
      "inputs": [
        {
          "internalType": "address",
          "name": "from",
          "type": "address"
        },
        {
          "internalType": "address",
          "name": "to",
          "type": "address"
        },
        {
          "internalType": "uint256",
          "name": "amount",
          "type": "uint256"
        }
      ],
      "name": "transferFrom",
      "outputs": [
        {
          "internalType": "bool",
          "name": "",
          "type": "bool"
        }
      ],
      "stateMutability": "nonpayable",
      "type": "function"
    },
    {
      "inputs": [
        {
          "internalType": "address",
          "name": "newOwner",
          "type": "address"
        }
      ],
      "name": "transferOwnership",
      "outputs": [],
      "stateMutability": "nonpayable",
      "type": "function"
    }
  ],
  "bytecode": "0x60806040523480156200001157600080fd5b50604051620042b2380380620042b283398101604081905262000034916200010d565b60405180604001604052806009815260200168283630bc9922b0b93760b91b8152506040518060400160405280600381526020016250324560e81b8152506200008c62000086620000b960201b60201c565b620000bd565b6001805560056200009e8382620001cc565b506006620000ad8282620001cc565b505050600b5562000298565b3390565b600080546001600160a01b038381166001600160a01b0319831681178455604051919092169283917f8be0079c531659141344cd1fd0a4f28419497f9722a3daafe3b4186f6b6457e09190a35050565b6000602082840312156200012057600080fd5b5051919050565b634e487b7160e01b600052604160045260246000fd5b600181811c908216806200015257607f821691505b6020821081036200017357634e487b7160e01b600052602260045260246000fd5b50919050565b601f821115620001c757600081815260208120601f850160051c81016020861015620001a25750805b601f850160051c820191505b81811015620001c357828155600101620001ae565b5050505b505050565b81516001600160401b03811115620001e857620001e862000127565b6200020081620001f984546200013d565b8462000179565b602080601f8311600181146200023857600084156200021f5750858301515b600019600386901b1c1916600185901b178555620001c3565b600085815260208120601f198616915b82811015620002695788860151825594840194600190910190840162000248565b5085821015620002885787850151600019600388901b60f8161c191681555b5050505050600190811b01905550565b61400a80620002a86000396000f3fe6080604052600436106101cd5760003560e01c80637ce3489b116100f7578063a2f77bcc11610095578063dd62ed3e11610064578063dd62ed3e14610520578063e01ef6e614610540578063e115234314610556578063f2fde38b1461057657600080fd5b8063a2f77bcc1461049e578063a457c2d7146104cb578063a9059cbb146104eb578063c04c59471461050b57600080fd5b80638da5cb5b116100d15780638da5cb5b1461041f57806390d559a71461044757806395d89b4114610469578063a09621c71461047e57600080fd5b80637ce3489b146103ca578063872ff923146103ea5780638cfeadae146103ff57600080fd5b8063248a55a11161016f5780635d12ace41161013e5780635d12ace41461034c57806370a082311461036c578063715018a6146103a25780637a2f2136146103b757600080fd5b8063248a55a1146102d0578063313ce567146102f0578063395093511461030c57806339bd3bbb1461032c57600080fd5b8063095ea7b3116101ab578063095ea7b31461024c57806318160ddd1461027c5780631eb4a1e51461029b57806323b872dd146102b057600080fd5b80630210d751146101d257806304527d90146101fd57806306fdde031461022a575b600080fd5b3480156101de57600080fd5b506101e7610596565b6040516101f491906138ab565b60405180910390f35b34801561020957600080fd5b5061021d61021836600461390d565b6108b7565b6040516101f49190613926565b34801561023657600080fd5b5061023f61096d565b6040516101f491906139a9565b34801561025857600080fd5b5061026c6102673660046139d8565b6109ff565b60405190151581526020016101f4565b34801561028857600080fd5b506004545b6040519081526020016101f4565b6102ae6102a9366004613aa5565b610a19565b005b3480156102bc57600080fd5b5061026c6102cb366004613b2c565b610e29565b3480156102dc57600080fd5b506102ae6102eb36600461390d565b610e4d565b3480156102fc57600080fd5b50604051601281526020016101f4565b34801561031857600080fd5b5061026c6103273660046139d8565b611031565b34801561033857600080fd5b506102ae610347366004613b68565b611053565b34801561035857600080fd5b506102ae610367366004613b8a565b611178565b34801561037857600080fd5b5061028d610387366004613bb6565b6001600160a01b031660009081526002602052604090205490565b3480156103ae57600080fd5b506102ae6113ee565b6102ae6103c5366004613b68565b611402565b3480156103d657600080fd5b506102ae6103e536600461390d565b6115cd565b3480156103f657600080fd5b506101e761164d565b34801561040b57600080fd5b506102ae61041a366004613bd1565b611962565b34801561042b57600080fd5b506000546040516001600160a01b0390911681526020016101f4565b34801561045357600080fd5b5061045c611c4e565b6040516101f49190613bfd565b34801561047557600080fd5b5061023f611ee9565b34801561048a57600080fd5b5061045c61049936600461390d565b611ef8565b3480156104aa57600080fd5b506104be6104b936600461390d565b612064565b6040516101f49190613cd9565b3480156104d757600080fd5b5061026c6104e63660046139d8565b61223e565b3480156104f757600080fd5b5061026c6105063660046139d8565b6122b9565b34801561051757600080fd5b506101e76122c7565b34801561052c57600080fd5b5061028d61053b366004613cec565b6125de565b34801561054c57600080fd5b5061028d600b5481565b34801561056257600080fd5b506102ae61057136600461390d565b612609565b34801561058257600080fd5b506102ae610591366004613bb6565b612c2b565b6060600060015b6007548111610606576000818152600d60205260409020600b015460ff161580156105e157506000818152600d60205260409020600301546001600160a01b031633145b156105f457816105f081613d2c565b9250505b806105fe81613d2c565b91505061059d565b508067ffffffffffffffff81111561062057610620613a02565b60405190808252806020026020018201604052801561065957816020015b61064661367d565b81526020019060019003908161063e5790505b509150600060015b60075481116108b1576000818152600d60205260409020600b015460ff161580156106a557506000818152600d60205260409020600301546001600160a01b031633145b1561089f57600d6000828152602001908152602001600020604051806101a0016040529081600082015481526020016001820180546106e390613d45565b80601f016020809104026020016040519081016040528092919081815260200182805461070f90613d45565b801561075c5780601f106107315761010080835404028352916020019161075c565b820191906000526020600020905b81548152906001019060200180831161073f57829003601f168201915b5050505050815260200160028201805461077590613d45565b80601f01602080910402602001604051908101604052809291908181526020018280546107a190613d45565b80156107ee5780601f106107c3576101008083540402835291602001916107ee565b820191906000526020600020905b8154815290600101906020018083116107d157829003601f168201915b505050918352505060038201546001600160a01b03166020820152600482015460408201526005820154606082015260068201546080820152600782015460a0820152600882015460c0820152600982015460e0820152600a82015461010080830191909152600b9092015460ff8082161515610120840152929004909116151561014090910152848361088181613d2c565b94508151811061089357610893613d7f565b60200260200101819052505b806108a981613d2c565b915050610661565b50505090565b6060600f6000838152602001908152602001600020805480602002602001604051908101604052809291908181526020016000905b828210156109625760008481526020908190206040805160c08101825260068602909201805483526001808201548486015260028201546001600160a01b03169284019290925260038101546060840152600481015460808401526005015460ff16151560a083015290835290920191016108ec565b505050509050919050565b60606005805461097c90613d45565b80601f01602080910402602001604051908101604052809291908181526020018280546109a890613d45565b80156109f55780601f106109ca576101008083540402835291602001916109f5565b820191906000526020600020905b8154815290600101906020018083116109d857829003601f168201915b5050505050905090565b600033610a0d818585612ca1565b60019150505b92915050565b60003411610a6e5760405162461bcd60e51b815260206004820152601f60248201527f5374616b65206d7573742062652067726561746572207468616e207a65726f0060448201526064015b60405180910390fd5b60018411610acc5760405162461bcd60e51b815260206004820152602560248201527f5061727469636970616e7473206d7573742062652067726561746572207468616044820152646e206f6e6560d81b6064820152608401610a65565b6000865111610b155760405162461bcd60e51b81526020600482015260156024820152745469746c652063616e6e6f7420626520656d70747960581b6044820152606401610a65565b6000855111610b665760405162461bcd60e51b815260206004820152601b60248201527f4465736372697074696f6e2063616e6e6f7420626520656d70747900000000006044820152606401610a65565b60008211610bc25760405162461bcd60e51b8152602060048201526024808201527f53746172742064617465206d7573742062652067726561746572207468616e206044820152637a65726f60e01b6064820152608401610a65565b818111610c225760405162461bcd60e51b815260206004820152602860248201527f456e642064617465206d7573742062652067726561746572207468616e207374604482015267617274206461746560c01b6064820152608401610a65565b60008311610c725760405162461bcd60e51b815260206004820181905260248201527f4e756d626572204f662077696e6e6572732063616e6e6f74206265207a65726f6044820152606401610a65565b610c80600780546001019055565b610c8861367d565b600754815260208101879052604081018690526080810185905260a08101849052610100810183905261012081018290523460e0820152336060820152610ccd612dc5565b61014082015280516000908152600d6020908152604090912082518155908201518291906001820190610d009082613de3565b5060408201516002820190610d159082613de3565b5060608201516003820180546001600160a01b0319166001600160a01b039092169190911790556080820151600482015560a0820151600582015560c0820151600682015560e082015160078201556101008083015160088301556101208301516009830155610140830151600a830155610160830151600b90920180546101809094015161ffff1990941692151561ff001916929092179215150291909117905580516000908152600c60205260409020805460ff191660011790558051610ddd90612de4565b610df95760405162461bcd60e51b8152600401610a6590613ea3565b8051610e0490612ee6565b610e205760405162461bcd60e51b8152600401610a6590613eda565b50505050505050565b600033610e37858285612f8a565b610e42858585613004565b506001949350505050565b6000818152600c602052604090205460ff16610e7b5760405162461bcd60e51b8152600401610a6590613f0a565b6000818152600d60205260409020600301546001600160a01b03163314610eb45760405162461bcd60e51b8152600401610a6590613f32565b6000818152600d6020526040902060060154600114610f155760405162461bcd60e51b815260206004820152601c60248201527f5061727469636970616e747320616c726561647920696e2067616d65000000006044820152606401610a65565b6000818152600e60205260409020805480610f3257610f32613f5f565b600082815260208082206003600019909401938402018281556001810183905560020180546001600160a01b031916905591909255828252600f905260409020805480610f8157610f81613f5f565b60008281526020808220600660001990940193840201828155600181018390556002810180546001600160a01b03191690556003810183905560048101839055600501805460ff1990811690915592909355838152601083526040808220338084529085528183208054909416909355848252600d909352919091206007015461100b91906131af565b6000908152600d602052604081206006810191909155600b01805460ff19166001179055565b600033610a0d81858561104483836125de565b61104e9190613f75565b612ca1565b6000828152600c602052604090205460ff166110815760405162461bcd60e51b8152600401610a6590613f0a565b60008281526012602052604090208054339190839081106110a4576110a4613d7f565b60009182526020909120600360079092020101546001600160a01b0316146110de5760405162461bcd60e51b8152600401610a6590613f32565b6110e782612de4565b6111035760405162461bcd60e51b8152600401610a6590613ea3565b61110c82612ee6565b6111285760405162461bcd60e51b8152600401610a6590613eda565b60008281526012602052604090208054600191908390811061114c5761114c613d7f565b906000526020600020906007020160040160146101000a81548160ff0219169083151502179055505050565b6000838152600c602052604090205460ff166111a65760405162461bcd60e51b8152600401610a6590613f0a565b6000838152600d602052604090206005810154600690910154116112055760405162461bcd60e51b8152602060048201526016602482015275139bdd08195b9bdd59da081c1b185e595c9cc81e595d60521b6044820152606401610a65565b6000838152600f6020526040902080543391908490811061122857611228613d7f565b60009182526020909120600260069092020101546001600160a01b0316146112625760405162461bcd60e51b8152600401610a6590613f32565b6000838152600f6020526040902080548390811061128257611282613d7f565b600091825260209091206005600690920201015460ff16156112df5760405162461bcd60e51b815260206004820152601660248201527514d8dbdc9948185b1c9958591e481c9958dbdc99195960521b6044820152606401610a65565b6000838152600d60205260409020600801546112f9612dc5565b11801561131d57506000838152600d602052604090206009015461131b612dc5565b105b6113695760405162461bcd60e51b815260206004820152601c60248201527f47616d6520706c6179206d75737420626520696e2073657373696f6e000000006044820152606401610a65565b6000838152600f6020526040902080548291908490811061138c5761138c613d7f565b9060005260206000209060060201600301819055506001600f600085815260200190815260200160002083815481106113c7576113c7613d7f565b60009182526020909120600690910201600501805460ff1916911515919091179055505050565b6113f6613214565b611400600061326e565b565b6000828152600c602052604090205460ff166114305760405162461bcd60e51b8152600401610a6590613f0a565b6000828152600d60205260409020600701543410156114885760405162461bcd60e51b8152602060048201526014602482015273125b9cdd59999a58da595b9d1948185b5bdd5b9d60621b6044820152606401610a65565b60008281526012602052604090208054339190839081106114ab576114ab613d7f565b60009182526020909120600360079092020101546001600160a01b0316146114e55760405162461bcd60e51b8152600401610a6590613f32565b6114ee82612de4565b61150a5760405162461bcd60e51b8152600401610a6590613ea3565b61151382612ee6565b61152f5760405162461bcd60e51b8152600401610a6590613eda565b60008281526012602052604090208054600191908390811061155357611553613d7f565b906000526020600020906007020160040160146101000a81548160ff02191690831515021790555060016012600084815260200190815260200160002082815481106115a1576115a1613d7f565b906000526020600020906007020160040160156101000a81548160ff0219169083151502179055505050565b6115d5613214565b6000811180156115e6575060648111155b6116485760405162461bcd60e51b815260206004820152602d60248201527f4665652070657263656e74206d75737420626520696e207468652072616e676560448201526c206f66202831202d203130302960981b6064820152608401610a65565b600b55565b6060600060015b60075481116116ba576000818152600d60205260409020600b015460ff1615801561169557506000818152600d60205260409020600b0154610100900460ff165b156116a857816116a481613d2c565b9250505b806116b281613d2c565b915050611654565b508067ffffffffffffffff8111156116d4576116d4613a02565b60405190808252806020026020018201604052801561170d57816020015b6116fa61367d565b8152602001906001900390816116f25790505b509150600060015b60075481116108b1576000818152600d60205260409020600b015460ff1615801561175657506000818152600d60205260409020600b0154610100900460ff165b1561195057600d6000828152602001908152602001600020604051806101a00160405290816000820154815260200160018201805461179490613d45565b80601f01602080910402602001604051908101604052809291908181526020018280546117c090613d45565b801561180d5780601f106117e25761010080835404028352916020019161180d565b820191906000526020600020905b8154815290600101906020018083116117f057829003601f168201915b5050505050815260200160028201805461182690613d45565b80601f016020809104026020016040519081016040528092919081815260200182805461185290613d45565b801561189f5780601f106118745761010080835404028352916020019161189f565b820191906000526020600020905b81548152906001019060200180831161188257829003601f168201915b505050918352505060038201546001600160a01b03166020820152600482015460408201526005820154606082015260068201546080820152600782015460a0820152600882015460c0820152600982015460e0820152600a82015461010080830191909152600b9092015460ff8082161515610120840152929004909116151561014090910152848361193281613d2c565b94508151811061194457611944613d7f565b60200260200101819052505b8061195a81613d2c565b915050611715565b6000828152600c602052604090205460ff166119905760405162461bcd60e51b8152600401610a6590613f0a565b6000828152600d602052604090206004810154600690910154106119e85760405162461bcd60e51b815260206004820152600f60248201526e4f7574206f6620636170616369747960881b6044820152606401610a65565b60008281526010602090815260408083206001600160a01b038516845290915290205460ff1615611a5b5760405162461bcd60e51b815260206004820152601760248201527f506c6179657220616c72656164792061636365707465640000000000000000006044820152606401610a65565b611a69600980546001019055565b611a716136f2565b600954815260408082018490526000848152600d602052206001018054611a9790613d45565b80601f0160208091040260200160405190810160405280929190818152602001828054611ac390613d45565b8015611b105780601f10611ae557610100808354040283529160200191611b10565b820191906000526020600020905b815481529060010190602001808311611af357829003601f168201915b505050505060208201526001600160a01b0382166060820152336080820152611b37612dc5565b6101008201526000838152600d6020908152604080832060079081015460e0860152868452601183528184206001600160a01b03871685528352818420805460ff191660019081179091558785526012845291842080548084018255908552938390208551949091020192835590830151839291820190611bb89082613de3565b506040820151600282015560608201516003820180546001600160a01b0319166001600160a01b03928316179055608083015160048301805460a086015160c0870151939094166001600160a81b031990911617600160a01b931515939093029290921760ff60a81b1916600160a81b9115159190910217905560e0820151600582015561010090910151600690910155505050565b6060600060015b6007548111611ca057600081815260116020908152604080832033845290915290205460ff1615611c8e5781611c8a81613d2c565b9250505b80611c9881613d2c565b915050611c55565b508067ffffffffffffffff811115611cba57611cba613a02565b604051908082528060200260200182016040528015611cf357816020015b611ce06136f2565b815260200190600190039081611cd85790505b509150600060015b60075481116108b157600081815260116020908152604080832033845290915290205460ff1615611ed75760005b600082815260126020526040902054811015611ec8576000828152601260205260409020805482908110611d5f57611d5f613d7f565b90600052602060002090600702016040518061012001604052908160008201548152602001600182018054611d9390613d45565b80601f0160208091040260200160405190810160405280929190818152602001828054611dbf90613d45565b8015611e0c5780601f10611de157610100808354040283529160200191611e0c565b820191906000526020600020905b815481529060010190602001808311611def57829003601f168201915b50505091835250506002820154602082015260038201546001600160a01b0390811660408301526004830154908116606083015260ff600160a01b8204811615156080840152600160a81b90910416151560a0820152600582015460c082015260069091015460e0909101528551869085908110611e8c57611e8c613d7f565b602002602001018190525080858481518110611eaa57611eaa613d7f565b60209081029190910101515280611ec081613d2c565b915050611d29565b5081611ed381613d2c565b9250505b80611ee181613d2c565b915050611cfb565b60606006805461097c90613d45565b606060126000838152602001908152602001600020805480602002602001604051908101604052809291908181526020016000905b8282101561096257838290600052602060002090600702016040518061012001604052908160008201548152602001600182018054611f6b90613d45565b80601f0160208091040260200160405190810160405280929190818152602001828054611f9790613d45565b8015611fe45780601f10611fb957610100808354040283529160200191611fe4565b820191906000526020600020905b815481529060010190602001808311611fc757829003601f168201915b5050509183525050600282015460208083019190915260038301546001600160a01b0390811660408401526004840154908116606084015260ff600160a01b8204811615156080850152600160a81b90910416151560a0830152600583015460c083015260069092015460e0909101529082526001929092019101611f2d565b61206c61367d565b600d6000838152602001908152602001600020604051806101a0016040529081600082015481526020016001820180546120a590613d45565b80601f01602080910402602001604051908101604052809291908181526020018280546120d190613d45565b801561211e5780601f106120f35761010080835404028352916020019161211e565b820191906000526020600020905b81548152906001019060200180831161210157829003601f168201915b5050505050815260200160028201805461213790613d45565b80601f016020809104026020016040519081016040528092919081815260200182805461216390613d45565b80156121b05780601f10612185576101008083540402835291602001916121b0565b820191906000526020600020905b81548152906001019060200180831161219357829003601f168201915b505050918352505060038201546001600160a01b03166020820152600482015460408201526005820154606082015260068201546080820152600782015460a0820152600882015460c0820152600982015460e0820152600a82015461010080830191909152600b9092015460ff808216151561012084015292900490911615156101409091015292915050565b6000338161224c82866125de565b9050838110156122ac5760405162461bcd60e51b815260206004820152602560248201527f45524332303a2064656372656173656420616c6c6f77616e63652062656c6f77604482015264207a65726f60d81b6064820152608401610a65565b610e428286868403612ca1565b600033610a0d818585613004565b6060600060015b6007548111612335576000818152600d60205260409020600b015460ff1615801561231057506000818152600d60205260409020600b0154610100900460ff16155b15612323578161231f81613d2c565b9250505b8061232d81613d2c565b9150506122ce565b508067ffffffffffffffff81111561234f5761234f613a02565b60405190808252806020026020018201604052801561238857816020015b61237561367d565b81526020019060019003908161236d5790505b509150600060015b60075481116108b1576000818152600d60205260409020600b015460ff161580156123d257506000818152600d60205260409020600b0154610100900460ff16155b156125cc57600d6000828152602001908152602001600020604051806101a00160405290816000820154815260200160018201805461241090613d45565b80601f016020809104026020016040519081016040528092919081815260200182805461243c90613d45565b80156124895780601f1061245e57610100808354040283529160200191612489565b820191906000526020600020905b81548152906001019060200180831161246c57829003601f168201915b505050505081526020016002820180546124a290613d45565b80601f01602080910402602001604051908101604052809291908181526020018280546124ce90613d45565b801561251b5780601f106124f05761010080835404028352916020019161251b565b820191906000526020600020905b8154815290600101906020018083116124fe57829003601f168201915b505050918352505060038201546001600160a01b03166020820152600482015460408201526005820154606082015260068201546080820152600782015460a0820152600882015460c0820152600982015460e0820152600a82015461010080830191909152600b9092015460ff808216151561012084015292900490911615156101409091015284836125ae81613d2c565b9450815181106125c0576125c0613d7f565b60200260200101819052505b806125d681613d2c565b915050612390565b6001600160a01b03918216600090815260036020908152604080832093909416825291909152205490565b6126116132be565b6000818152600c602052604090205460ff166126655760405162461bcd60e51b815260206004820152601360248201527211d85b5948191bd95cc81b9bdd08195e1a5cdd606a1b6044820152606401610a65565b6000818152600d602052604090206009015461267f612dc5565b116126c45760405162461bcd60e51b815260206004820152601560248201527423b0b6b29039ba34b6361034b71039b2b9b9b4b7b760591b6044820152606401610a65565b6000818152600d60205260409020600b0154610100900460ff16156127235760405162461bcd60e51b815260206004820152601560248201527411d85b5948185b1c9958591e481c185a59081bdd5d605a1b6044820152606401610a65565b6000600d6000838152602001908152602001600020604051806101a00160405290816000820154815260200160018201805461275e90613d45565b80601f016020809104026020016040519081016040528092919081815260200182805461278a90613d45565b80156127d75780601f106127ac576101008083540402835291602001916127d7565b820191906000526020600020905b8154815290600101906020018083116127ba57829003601f168201915b505050505081526020016002820180546127f090613d45565b80601f016020809104026020016040519081016040528092919081815260200182805461281c90613d45565b80156128695780601f1061283e57610100808354040283529160200191612869565b820191906000526020600020905b81548152906001019060200180831161284c57829003601f168201915b505050918352505060038201546001600160a01b03166020820152600482015460408201526005820154606082015260068201546080820152600782015460a0820152600882015460c080830191909152600983015460e080840191909152600a84015461010080850191909152600b9094015460ff80821615156101208601529490049093161515610140909201919091528201519082015191925060009161291291613317565b905060006129366064612930600b548561331790919063ffffffff16565b9061332a565b9050600061294582600261332a565b9050600061295d826129578686613336565b90613336565b905061297a6129746000546001600160a01b031690565b846131af565b6129888560600151836131af565b6000868152600f602052604081205467ffffffffffffffff8111156129af576129af613a02565b6040519080825280602002602001820160405280156129e857816020015b6129d5613754565b8152602001906001900390816129cd5790505b506000888152600f602090815260408083208054825181850281018501909352808352949550612a98949193909284015b82821015612a8f5760008481526020908190206040805160c08101825260068602909201805483526001808201548486015260028201546001600160a01b03169284019290925260038101546060840152600481015460808401526005015460ff16151560a08301529083529092019101612a19565b50505050613342565b905060005b8660a00151811015612bf9576000612ac28860a001518561332a90919063ffffffff16565b9050612aeb838381518110612ad957612ad9613d7f565b602002602001015160400151826131af565b612b12838381518110612b0057612b00613d7f565b602002602001015160400151826135b6565b60005b60008a8152600f6020526040902054811015612be45760008a8152600f60205260409020805482908110612b4b57612b4b613d7f565b600091825260209091206002600690920201015484516001600160a01b0390911690859085908110612b7f57612b7f613d7f565b6020026020010151604001516001600160a01b031603612bd25760008a8152600f60205260409020805483919083908110612bbc57612bbc613d7f565b9060005260206000209060060201600401819055505b80612bdc81613d2c565b915050612b15565b50508080612bf190613d2c565b915050612a9d565b5050506000858152600d60205260409020600b01805461ff00191661010017905550612c289250613677915050565b50565b612c33613214565b6001600160a01b038116612c985760405162461bcd60e51b815260206004820152602660248201527f4f776e61626c653a206e6577206f776e657220697320746865207a65726f206160448201526564647265737360d01b6064820152608401610a65565b612c288161326e565b6001600160a01b038316612d035760405162461bcd60e51b8152602060048201526024808201527f45524332303a20617070726f76652066726f6d20746865207a65726f206164646044820152637265737360e01b6064820152608401610a65565b6001600160a01b038216612d645760405162461bcd60e51b815260206004820152602260248201527f45524332303a20617070726f766520746f20746865207a65726f206164647265604482015261737360f01b6064820152608401610a65565b6001600160a01b0383811660008181526003602090815260408083209487168084529482529182902085905590518481527f8c5be1e5ebec7d5bd14f71427d1e84f3dd0314c0f7b2291e5b200ac8c7c3b925910160405180910390a3505050565b6000612dd3426103e8613f88565b612ddf906103e8613f75565b905090565b6000612df4600880546001019055565b612e216040518060600160405280600081526020016000815260200160006001600160a01b031681525090565b600854815260208082018481523360408085018281526000888152600e865282812080546001808201835591835287832089516003909202019081559551868201559151600290950180546001600160a01b0319166001600160a01b039096169590951790945587845260108552818420928452918452808320805460ff1916909217909155858252600d909252908120600601805491612ec183613d2c565b919050555034600a6000828254612ed89190613f75565b909155506001949350505050565b6000612ef0613754565b6000838152600f602081815260408084208054808752868401988952339287019283529383526001808501825590855291909320845160069093020191825594518186015590516002820180546001600160a01b0319166001600160a01b03909216919091179055606082015160038201556080820151600482015560a0909101516005909101805460ff19169115159190911790555090565b6000612f9684846125de565b90506000198114612ffe5781811015612ff15760405162461bcd60e51b815260206004820152601d60248201527f45524332303a20696e73756666696369656e7420616c6c6f77616e63650000006044820152606401610a65565b612ffe8484848403612ca1565b50505050565b6001600160a01b0383166130685760405162461bcd60e51b815260206004820152602560248201527f45524332303a207472616e736665722066726f6d20746865207a65726f206164604482015264647265737360d81b6064820152608401610a65565b6001600160a01b0382166130ca5760405162461bcd60e51b815260206004820152602360248201527f45524332303a207472616e7366657220746f20746865207a65726f206164647260448201526265737360e81b6064820152608401610a65565b6001600160a01b038316600090815260026020526040902054818110156131425760405162461bcd60e51b815260206004820152602660248201527f45524332303a207472616e7366657220616d6f756e7420657863656564732062604482015265616c616e636560d01b6064820152608401610a65565b6001600160a01b0380851660008181526002602052604080822086860390559286168082529083902080548601905591517fddf252ad1be2c89b69c2b068fc378daa952ba7f163c4a11628f55a4df523b3ef906131a29086815260200190565b60405180910390a3612ffe565b6000826001600160a01b03168260405160006040518083038185875af1925050503d80600081146131fc576040519150601f19603f3d011682016040523d82523d6000602084013e613201565b606091505b505090508061320f57600080fd5b505050565b6000546001600160a01b031633146114005760405162461bcd60e51b815260206004820181905260248201527f4f776e61626c653a2063616c6c6572206973206e6f7420746865206f776e65726044820152606401610a65565b600080546001600160a01b038381166001600160a01b0319831681178455604051919092169283917f8be0079c531659141344cd1fd0a4f28419497f9722a3daafe3b4186f6b6457e09190a35050565b6002600154036133105760405162461bcd60e51b815260206004820152601f60248201527f5265656e7472616e637947756172643a207265656e7472616e742063616c6c006044820152606401610a65565b6002600155565b60006133238284613f88565b9392505050565b60006133238284613f9f565b60006133238284613fc1565b805160609060005b613355600183613fc1565b8110156135ae5760005b600161336b8285613fc1565b6133759190613fc1565b81101561359b5784818151811061338e5761338e613d7f565b602002602001015160a0015180156133c95750846133ac8383613f75565b815181106133bc576133bc613d7f565b602002602001015160a001515b156134aa57846133da826001613f75565b815181106133ea576133ea613d7f565b60200260200101516060015185828151811061340857613408613d7f565b60200260200101516060015111156134a557600085828151811061342e5761342e613d7f565b60200260200101519050858260016134469190613f75565b8151811061345657613456613d7f565b602002602001015186838151811061347057613470613d7f565b60209081029190910101528086613488846001613f75565b8151811061349857613498613d7f565b6020026020010181905250505b613589565b8481815181106134bc576134bc613d7f565b602002602001015160a001511580156134f95750846134dc826001613f75565b815181106134ec576134ec613d7f565b602002602001015160a001515b1561358957600085828151811061351257613512613d7f565b602002602001015190508582600161352a9190613f75565b8151811061353a5761353a613d7f565b602002602001015186838151811061355457613554613d7f565b6020908102919091010152808661356c846001613f75565b8151811061357c5761357c613d7f565b6020026020010181905250505b8061359381613d2c565b91505061335f565b50806135a681613d2c565b91505061334a565b509192915050565b6001600160a01b03821661360c5760405162461bcd60e51b815260206004820152601f60248201527f45524332303a206d696e7420746f20746865207a65726f2061646472657373006044820152606401610a65565b806004600082825461361e9190613f75565b90915550506001600160a01b0382166000818152600260209081526040808320805486019055518481527fddf252ad1be2c89b69c2b068fc378daa952ba7f163c4a11628f55a4df523b3ef910160405180910390a35050565b60018055565b604051806101a0016040528060008152602001606081526020016060815260200160006001600160a01b03168152602001600081526020016000815260200160008152602001600081526020016000815260200160008152602001600081526020016000151581526020016000151581525090565b60405180610120016040528060008152602001606081526020016000815260200160006001600160a01b0316815260200160006001600160a01b0316815260200160001515815260200160001515815260200160008152602001600081525090565b6040518060c00160405280600081526020016000815260200160006001600160a01b0316815260200160008152602001600081526020016000151581525090565b6000815180845260005b818110156137bb5760208185018101518683018201520161379f565b506000602082860101526020601f19601f83011685010191505092915050565b60006101a08251845260208301518160208601526137fb82860182613795565b915050604083015184820360408601526138158282613795565b915050606083015161383260608601826001600160a01b03169052565b506080830151608085015260a083015160a085015260c083015160c085015260e083015160e0850152610100808401518186015250610120808401518186015250610140808401518186015250610160808401516138938287018215159052565b50506101809283015115159390920192909252919050565b6000602080830181845280855180835260408601915060408160051b870101925083870160005b8281101561390057603f198886030184526138ee8583516137db565b945092850192908501906001016138d2565b5092979650505050505050565b60006020828403121561391f57600080fd5b5035919050565b602080825282518282018190526000919060409081850190868401855b8281101561399c578151805185528681015187860152858101516001600160a01b031686860152606080820151908601526080808201519086015260a09081015115159085015260c09093019290850190600101613943565b5091979650505050505050565b6020815260006133236020830184613795565b80356001600160a01b03811681146139d357600080fd5b919050565b600080604083850312156139eb57600080fd5b6139f4836139bc565b946020939093013593505050565b634e487b7160e01b600052604160045260246000fd5b600082601f830112613a2957600080fd5b813567ffffffffffffffff80821115613a4457613a44613a02565b604051601f8301601f19908116603f01168101908282118183101715613a6c57613a6c613a02565b81604052838152866020858801011115613a8557600080fd5b836020870160208301376000602085830101528094505050505092915050565b60008060008060008060c08789031215613abe57600080fd5b863567ffffffffffffffff80821115613ad657600080fd5b613ae28a838b01613a18565b97506020890135915080821115613af857600080fd5b50613b0589828a01613a18565b96999698505050506040850135946060810135946080820135945060a09091013592509050565b600080600060608486031215613b4157600080fd5b613b4a846139bc565b9250613b58602085016139bc565b9150604084013590509250925092565b60008060408385031215613b7b57600080fd5b50508035926020909101359150565b600080600060608486031215613b9f57600080fd5b505081359360208301359350604090920135919050565b600060208284031215613bc857600080fd5b613323826139bc565b60008060408385031215613be457600080fd5b82359150613bf4602084016139bc565b90509250929050565b60006020808301818452808551808352604092508286019150828160051b87010184880160005b83811015613ccb57603f1989840301855281516101208151855288820151818a870152613c5382870182613795565b9150508782015188860152606080830151613c78828801826001600160a01b03169052565b50506080828101516001600160a01b03169086015260a08083015115159086015260c08083015115159086015260e080830151908601526101009182015191909401529386019390860190600101613c24565b509098975050505050505050565b60208152600061332360208301846137db565b60008060408385031215613cff57600080fd5b613d08836139bc565b9150613bf4602084016139bc565b634e487b7160e01b600052601160045260246000fd5b600060018201613d3e57613d3e613d16565b5060010190565b600181811c90821680613d5957607f821691505b602082108103613d7957634e487b7160e01b600052602260045260246000fd5b50919050565b634e487b7160e01b600052603260045260246000fd5b601f82111561320f57600081815260208120601f850160051c81016020861015613dbc5750805b601f850160051c820191505b81811015613ddb57828155600101613dc8565b505050505050565b815167ffffffffffffffff811115613dfd57613dfd613a02565b613e1181613e0b8454613d45565b84613d95565b602080601f831160018114613e465760008415613e2e5750858301515b600019600386901b1c1916600185901b178555613ddb565b600085815260208120601f198616915b82811015613e7557888601518255948401946001909101908401613e56565b5085821015613e935787850151600019600388901b60f8161c191681555b5050505050600190811b01905550565b60208082526017908201527f4661696c656420746f2063726561746520706c61796572000000000000000000604082015260600190565b6020808252601690820152754661696c656420746f206372656174652073636f726560501b604082015260600190565b6020808252600e908201526d11d85b59481b9bdd08199bdd5b9960921b604082015260600190565b602080825260139082015272556e617574686f72697a656420656e7469747960681b604082015260600190565b634e487b7160e01b600052603160045260246000fd5b80820180821115610a1357610a13613d16565b8082028115828204841417610a1357610a13613d16565b600082613fbc57634e487b7160e01b600052601260045260246000fd5b500490565b81810381811115610a1357610a13613d1656fea2646970667358221220301235a516b609e6250f1c68f40f120d5638b8606afac2f12f6f5f631fc3699064736f6c63430008110033",
  "linkReferences": {},
  "deployedLinkReferences": {}
}